:020000040800F2
:10000000FFFF0120798C00088D0600088F0600088C
:1000100091060008930600089506000800000000FD
:10002000000000000000000000000000970600082B
:1000300099060008000000009B060008A1040008C3
:10004000BD8C0008BD8C0008BD8C0008BD8C00086C
:10005000BD8C0008BD8C0008BD8C0008BD8C00085C
:10006000BD8C0008BD8C0008BD8C0008BD8C00084C
:10007000BD8C0008BD8C0008BD8C0008BD8C00083C
:10008000BD8C0008BD8C0008BD8C0008BD8C00082C
:10009000BD8C0008BD8C0008BD8C0008BD8C00081C
:1000A000BD8C0008BD8C0008BD8C0008BD8C00080C
:1000B000BD8C0008BD8C0008BD8C0008BD8C0008FC
:1000C000BD8C0008BD8C0008BD8C0008BD8C0008EC
:1000D000BD8C0008BD8C0008BD8C0008BD8C0008DC
:1000E000BD8C0008BD8C0008E3080008BD8C00082A
:1000F000BD8C0008BD8C0008BD8C0008BD8C0008BC
:10010000BD8C0008BD8C0008BD8C0008BD8C0008AB
:10011000BD8C0008BD8C0008BD8C0008BD8C00089B
:10012000BD8C0008BD8C0008BD8C0008BD8C00088B
:10013000BD8C0008BD8C0008BD8C0008BD8C00087B
:10014000BD8C0008BD8C0008BD8C0008EB080008C1
:10015000BD8C0008BD8C0008BD8C0008BD8C00085B
:10016000BD8C0008BD8C0008BD8C0008BD8C00084B
:10017000BD8C0008BD8C0008BD8C0008BD8C00083B
:08018000BD8C0008BD8C0008D5
:1001A00010B5054C237833B9044B13B10448AFF3B1
:1001B00000800123237010BDE40600200000000031
:1001C00038900008084B10B51BB108490848AFF338
:1001D00000800848036803B910BD074B002BFBD013
:1001E000BDE81040184700BF00000000E8060020EE
:1001F00038900008E006002000000000154B002B9E
:1002000008BF134B9D46A3F5803A00218B460F464D
:100210001348144A121A08F089FB0F4B002B00D028
:1002200098470E4B002B00D0984700200021040077
:100230000D000D48002802D00C4808F03BFC08F0E7
:100240004DFB2000290008F0A1FC08F037FB00BF9F
:100250000000080000000000000000000000000096
:10026000E406002050170020B58A0008C18A000863
:1002700070B50123B1FBF3F4944201D35343F9E782
:100280007BB1B1FBF3F40568092C03FB141105F1F4
:100290000106CCBF37343034066093FBF2F32C7088
:1002A000EEE770BD2DE9F34102AD0C4645F8040DB3
:1002B000134606462D272278002A4FD0252A47D1FB
:1002C0006278642A1DD00AD8582A37D0632A11D000
:1002D000252A3BD10199481C01900A7036E0732A07
:1002E0001BD002D8692A0CD030E0752A22D0782A97
:1002F00024D02BE0019A511C01911968117004332C
:1003000024E01968002903F1040804DA019B5A1C4F
:10031000019249421F700A2214E0191D1B681A78C5
:1003200032B1019A501C019013F8010B1070F6E7DE
:100330000B460BE003F104080A2202E003F1040873
:10034000102219682846FFF793FF43460234B2E7AC
:100350000199481C019001340A70ACE7019B1A70A6
:100360000198801B02B0BDE8F08130B50446002042
:10037000237893B3252B29D16378692B04F10105E8
:1003800014D006D8632B0ED0642B0FD0582B1AD163
:1003900015E0752B0AD0782B11D0732B13D10A1DC1
:1003A0000968401A05E00A1D431C12E000F10B0326
:1003B00007E00B1811F8014B002CFAD109E000F10D
:1003C00008030A1D05E0431C0A4602E0431C0A46D6
:1003D00025466C1C11461846CAE730BD0EB403B55D
:1003E00003AA52F8041B0192FFF75CFF02B05DF80C
:1003F00004EB03B070470EB4F0B582B000AF07F164
:100400001C04064654F8045B7C6021462846FFF72E
:10041000ACFF073020F00700ADEB000D2246294667
:1004200068467C60FFF73EFF69460246B6F90E005B
:1004300008F0F8FD0837BD46BDE8F04003B070474E
:100440000FB4B0B582B000AF07F1180454F8045BE4
:100450007C6021462846FFF788FF073020F0070020
:10046000ADEB000D2246294668467C60FFF71AFF77
:1004700069460246012008F0D5FD0837BD46BDE8B3
:10048000B04004B0704782B0044B0190019A1A60EA
:100490001A68002AFCD102B0704700BFC4070020D0
:1004A000054B1A6812B11A68013A1A60034A1368B8
:1004B00001331360704700BFC4070020000700200D
:1004C00007B50A4B00930A4A0A4B0B48012101F079
:1004D00082FC0A4B00201860094B1860094B186019
:1004E000094B01221A7103B05DF804FB18010020CA
:1004F000F800002060000020C8070020BC07002092
:10050000C0070020B807002000070020034B1B791C
:1005100013B1034B18787047012070470007002083
:10052000140100200D4A136810B59BB10C4B0D4C03
:1005300019687F2984BF002119601968615C017006
:10054000196800206054013119601368013B136081
:10055000032010BD0370042010BD00BFB8070020A9
:10056000C0070020380700201FB58DF8070004A839
:100570009DF8073000F8013D012101F0E1FA00206B
:1005800005B05DF804FB10B5441E14F8010F10B15E
:10059000FFF7EAFFF9E710BD0B4B19687F2930B56B
:1005A0001A460ED8094B0A4D1C687F2C84BF0024C4
:1005B0001C601C682855013101341C60116000204A
:1005C00030BD022030BD00BFB8070020BC070020AE
:1005D00038070020F0B501218BB0042005F0B2FEF1
:1005E000294C0121022005F089FEC02300250126A7
:1005F000022700936946032320468DF805308DF8C5
:1006000004708DF806508DF8076004F04BFF3A46F1
:100610002046062104F0C4FF3A462046072104F094
:10062000BFFFA4F5FE3444F61F63039302A95423CD
:100630002046ADF80830ADF81050ADF80A5007F07C
:10064000E3F8602305A92046ADF81430ADF8166034
:100650000795ADF8205007F078F92046082107F0FB
:10066000C0FA05A9204607F0A9F92046082107F09D
:10067000C0FA3146204607F03AF93146204607F0E5
:1006800058F90BB0F0BD00BF000402407047FEE710
:10069000FEE7FEE7FEE7704770477047334B1A6886
:1006A000002142F001021A6099601A6822F08472F7
:1006B00022F480321A602E4A5A601A6882B022F4FC
:1006C00080221A60D960009101911A6842F4803248
:1006D0001A601A6802F400320192009A0132009204
:1006E000019A1AB9009AB2F5A06FF2D11F4B1B689C
:1006F00013F4003318BF01230193019B012B05D094
:100700001C4B4FF000629A6002B07047174B1A49B9
:100710001A6C42F080521A640A6842F440420A603D
:100720009A689A609A6842F400429A609A6842F421
:10073000A0529A60114A5A601A6842F080721A6098
:1007400019680A4A8901FBD50D4B40F20561196011
:10075000936823F003039360936843F0020393606C
:10076000936803F00C03082BFAD1C9E70038024064
:100770001030002400ED00E00070004008544007F5
:10078000003C0240174A1849936803F00C03042BFD
:1007900003D0082B03D0154B18E0154B16E050681A
:1007A000536810F4800F03F03F03506814BF104AE1
:1007B0000E4AB2FBF3F30B4A5268C2F30142C0F394
:1007C0008810013243435200B3FBF2F30B60054B38
:1007D0009B68C3F303130B441A790B68D3400B6077
:1007E000704700BF00380240040000200024F400DD
:1007F00000127A00F7B50121264C084605F07EFD6F
:100800004FF4C05300260327009369460223204675
:100810008DF804308DF805708DF806608DF807604E
:1008200004F040FE20460A220B2104F0B9FE0A2201
:1008300020460C2104F0B4FE01254FF400736946F4
:10084000204600938DF805708DF804608DF80650F1
:100850008DF8076004F026FE4FF480636946204659
:1008600000938DF806508DF807508DF8057004F050
:1008700019FE0A221146204604F092FE29464FF442
:10088000804005F06BFD2946802005F043FD03B054
:10089000F0BD00BF0000024007B54FF4C06001F09A
:1008A00091FD43238DF804300322012301A88DF824
:1008B00005308DF806208DF8073001F08DFD03B06E
:1008C0005DF804FB782358430723B0FBF3F00023C3
:1008D00001339842FCD270474FF47A735843FFF7C4
:1008E000F1BF4FF4802004F065B9014800F0CEBD9F
:1008F000C807002037B50023104C0193054603209C
:10090000FFF7E0FF2B68013C1A69019213D0019AAE
:10091000002AF4DA019A42F001020192019A1A6166
:10092000064A19690191013A02D00199C907F8D420
:100930000320FFF7C7FF002003B030BD410D0300C7
:1009400010B5C4786CB900EB82000333D0F8D00046
:100950009B102246934204D051F822400460013299
:10096000F8E7002010BD10B50332D0F8D030921057
:100970000020904204D01C6841F820400130F8E784
:1009800001EB800010BD0122F0B500238270012927
:100990004FF04002C37082800CD1082303700423FF
:1009A00043704FF4A073C38002230372C1724FF0EF
:1009B000A04309E041B90C230370062343704FF4B0
:1009C000A063C380234BC17203F5006246780261C5
:1009D000C36000F1140400F150051A460021B14231
:1009E00002F120070AD202F5106E02F5306244F8D7
:1009F00004EF013145F8042F3A46F0E703F5806231
:100A00004261044603F58862C0F8CC2014F88C2BB0
:100A100003EB421503F5A06105F5A065A94203D0DB
:100A200044F8041F2031F9E703EB023203F580514B
:100A300000F1CC0402F58052914204D044F8041F26
:100A400001F58051F8E703F56063C0F80C31002030
:100A5000F0BD00BF0000044038B5037A012B054605
:100A60004FF0000450F80C2F1ED1936B697A64F399
:100A7000104309B143F480139363D3686FF3861373
:100A80006FF396536FF351436FF3D343D360FFF784
:100A900031FFEB78012B19D1052363F34404EB6894
:100AA00044F020049C6011E0D36843F04003D3601D
:100AB000FFF720FF6B7AEA68002B0CBF4FF434136A
:100AC0004FF4741393631420FFF706FFEB78012BA8
:100AD00007D1EB689C68052262F3440444F02004CB
:100AE0009C60002038BDC268936843F001039360A6
:100AF00000207047C268936823F0010393600020D0
:100B0000704707B500230193019B43F02003019335
:100B1000019B61F38A130193C268019B1361074B28
:100B200011690191013B02D001998906F8D4032093
:100B3000FFF7C8FE002003B05DF804FB410D030081
:100B400007B500230193019B43F010030193C26892
:100B5000019B1361074B11690191013B02D001997F
:100B6000C906F8D40320FFF7ADFE002003B05DF8FE
:100B700004FB00BF410D0300C26808B5D36801291A
:100B80006FF35D736FF39E7302D143F0005302E085
:100B900009B943F08043D3603220FFF79DFE002067
:100BA00008BDC368586900F001007047C368586900
:100BB00000F0010080F001007047C368586900F040
:100BC00001007047C36858699B6918407047C36843
:100BD000586870470269136861F301031360704736
:100BE00010B5C26800236FF080414FF0FF3493616D
:100BF00051615460516108499161C178994208BFBF
:100C0000102343F47013916943F4605343F00803D5
:100C10000B439361002010BD00080080F8B5D0F8A8
:100C20000C3100221A6015460269136865F3CC2363
:100C30001360C37A012B044621D10321FFF7CAFFB9
:100C40008021C3684FF4001261F30F0259629A6267
:100C5000A02262F30F0561F31F454FF49072C3F8B1
:100C6000045162F30F05C0F220054FF4A072C3F8DF
:100C7000085162F30F056FF31F45C3F80C511021A3
:100C80002046FFF73EFF2046FFF75AFF2269002368
:100C90004FF0FF311361536191612169D36104F118
:100CA00014051E46FF27627893420CD255F8042F94
:100CB00010680028ACBF00204FF090401060013356
:100CC00016619760EFE7002304F150051E46FF27E9
:100CD000627893420CD255F8042F10680028ACBFFC
:100CE00000204FF090401060013316619760EFE7ED
:100CF0000B6943F480730B61E378012B01BF054B53
:100D0000402262F359430B632046FFF769FF00203E
:100D1000F8BD00BF0301010003699B68C3F34103F1
:100D2000022B04D001D8012B03D1022070470120EF
:100D30007047032070470369806999680268C1F3AE
:100D4000410102290ABF03216FF30A0261F30A027B
:100D500002605A6842F480725A60002070474A78F4
:100D60000B78012A30B54FF0000407D100EB830562
:100D700002FA03F3AD6963F30F0407E000EB8302AB
:100D8000556D012202FA03F363F31F442B681A0422
:100D90000DD48A6862F30A03CA7862F39343CA885F
:100DA00062F3995343F0805343F400432B6002698C
:100DB000D3692343D361002030BD30B54A780B7826
:100DC0000025012A2C4607D100EB830102FA03F328
:100DD000896963F30F0407E000EB8302516D012280
:100DE00002FA03F363F31F4402696FF3CF350D601A
:100DF000D36923EA0403D361002030BDF8B54D78F0
:100E00000A784B69012D00EB820245D19669326860
:100E1000346963F3120413B965F3DC440BE08F68A3
:100E2000DD19013DB5FBF7F565F3DC44CD78012D07
:100E300008BF65F35E743461C478012C0C7805D169
:100E400000EB84040D69A46965610AE0CD78012D89
:100E500007D033B1076901267D6B06FA04F42C43F1
:100E60007C63CC78012C07D10469A468E40554BFE5
:100E700042F0005242F080520C7800EB840442F0C1
:100E80000442A4692260CA78012A36D10A78C96866
:100E90009BB2FFF755FD30E0566D8D6832683469BE
:100EA0002BB965F31204012363F3DC440AE02B44FD
:100EB000013BB3FBF5F363F3DC44C3F309036B437A
:100EC00063F312043461C378012B05D10B780C69EC
:100ED00000EB83035B6D5C61CB78012B06D14B7912
:100EE00013B142F0005201E042F080520B7800EB67
:100EF000830042F00442436D1A600020F8BDF7B54C
:100F00004F784D69012F3BD186693468336900936E
:100F1000DAB2C3F3074335B965F306028DF8002052
:100F200067F3C4030EE08F68BD428CBF67F306020F
:100F300065F306028DF800204FF0010288BF4F6173
:100F400062F3C4038DF80230009B3361C378012B38
:100F500005D10B780A6900EB83039B695A6144F061
:100F600004443460C378002B32D14B69002B2FD05E
:100F700000690978426B01238B401343436327E0E8
:100F80000B788F6800EB83035E6D346833690093E0
:100F9000DAB2C3F3074305B14F6167F306028DF878
:100FA0000020012262F3C4038DF80230009B3361FC
:100FB000C378012B05D10B780A6900EB83035B6DC5
:100FC0005A610B7800EB830044F00444436D1C60CD
:100FD000002003B0F0BD4B78012B0B7800EB8300B1
:100FE00006D182691368002B04DA43F0804301E0E4
:100FF000426D136843F400131360002070474B7870
:10100000012B0B78C97800EB8300A1F102010CBF22
:101010008269426D136801296FF3555398BF43F0FD
:10102000805313600020704703699869DB6918409A
:10103000000C704700EB81014B6D9A680369586999
:101040001040704703699869DB69184080B27047A7
:1010500082B000230093C0238DF8033001224FF0AB
:10106000000362F3C4038DF8023018238DF80030BA
:10107000436D009A1A61C278012A06D100F2CC5061
:1010800058611A684FF080221A6002B07047D0F899
:10109000183110B50446D3B102699368DB0716D541
:1010A000837A43B1D0F80C31D0F80C116FF34103BF
:1010B0006FF300030B60536843F001035360052096
:1010C000FFF70AFC2269536823F00103536010BD47
:1010D000837A63B103699B68DB0708D5D0F80C31CC
:1010E000D0F80C216FF341036FF3000313607047D6
:1010F000012310B500F1140280F8123104460023D8
:10110000FF216078834206D252F8040F8160D06BD1
:1011100001338160F5E7236900221A615A61DA61BF
:101120004FF0FF3220469A61FFF70AFD204610215A
:10113000BDE81040FFF7E5BC4B78012B0B7800EBC6
:1011400083000BD183691B68C3F30743990613D44B
:1011500013F0020F14BF202030207047436D1B682E
:10116000C3F307439A0609D413F0020F14BF4FF4D8
:1011700000504FF440507047102070474FF480509B
:10118000704770B44B78012B0B7806460D4600EB88
:10119000830313D19C69102A236802D170BCFFF726
:1011A0001ABF202A15D0302A1ED19A0217D5002343
:1011B0006B712946304670BCFFF721BF5C6DB2F5FC
:1011C000805F236802D143F4001310E0B2F5005FA2
:1011D00002D143F000630AE0B2F5405FE4E743F078
:1011E000044343F4004302E00AB962F3CF332360BF
:1011F00070BC704770B50446FFF7C5FB00230121A2
:10120000657884F8121184F8143104F21D1218461E
:101210004026AB4202F128020FD202F8293C22F804
:10122000233C02F8281C02F8260C42F8216C42F8F4
:101230001D0C42F8150C0133EBE7002204F2753364
:1012400011464020AA4203F128030FD203F8292CAB
:1012500023F8232C03F8281C03F8261C43F8210C40
:1012600043F81D1C43F8151C0132EBE72046FFF73D
:1012700041FC2046FFF7F0FB00212046FFF77CFCF5
:101280002046FFF7CBFC2046BDE87040FFF72BBCA3
:1012900070B54EB201F07F04002E4FF02805B5BFA7
:1012A00005FB040105FB010101F58E7101F55D717E
:1012B000E4B2002EB8BFCC80022BCB704FEAD675BB
:1012C00008BF00230C704D708A6008BF0B71FFF7D8
:1012D00046FD002070BD4BB2002B10B54FF0280228
:1012E00001F07F04B5BF02FB040102FB010101F51F
:1012F0008E7101F55D71DB0F0C704B70FFF75DFDBA
:10130000002010BD70B501F07F05282606FB05F40E
:101310000119044401F55D71C4F88833002384F891
:101320007453C4F88023C4F88C3384F87533C378BD
:1013300006FB0505012B08BFC4F8842395F8743318
:1013400013B9FFF7DCFD01E0FFF758FD002070BD89
:1013500070B501F07F0528246C430119044401266F
:10136000C4F82821C4F82C21002201F58E7184F8DC
:101370001D6184F81C51C4F83421C4F8303115B90A
:10138000FFF7BDFD01E0FFF739FD002070BD4BB256
:10139000002B10B54FF0280201F07F04B5BF02FB0F
:1013A000040102FB010101F58E7101F55D7101225D
:1013B000DB0F8A700C704B70FFF70DFE002010BD24
:1013C00038B54BB2002B01F07F054FF02802B5BFB6
:1013D00002FB050102FB010101F58E7101F55D7152
:1013E0000024DB0F8C700D704B70FFF708FE204659
:1013F00038BD08B50B0604D501F07F01FFF781FB6E
:1014000001E0FFF79DFB002008BD10B50269002434
:10141000136861F30A142343136010BD0269536813
:101420006FF3410353600320FFF756BA0269536814
:1014300043F0020353600320FFF74EBA11F0800F10
:101440004FF028021BBF01F07F0302FB030102FBE8
:10145000010101F58E7108BF01F55D71FFF76CBEEA
:1014600011F0800F10B418BF01F07F034FF0280473
:1014700015BF04FB030104FB010101F58E7101F5A9
:101480005D715DF8044BFFF77CBE00002DE9F04F65
:1014900085B00446FFF78AFB08B9002010E2204619
:1014A000FFF790FB00900028F7D0C0F3074A0AF03E
:1014B000080303F0FF00002B52D02046FFF7B4FDD5
:1014C000DFF8A4B3074604F15406A1464FF0000824
:1014D000002F44D0FD073BD55FFA88F3194620461C
:1014E0000193FFF7A7FD0546E80721D53268019B68
:1014F00001259560E178A94207D11269C2F3120172
:10150000D9F87C23521AC9F88C23DBF8002019463D
:10151000126820469047E378012B09D1B8F1000FFB
:1015200006D194F81131052B02D12046FFF790FD2A
:10153000A90741BF022533682A469A602A0707D5C2
:10154000DBF8003020469B689847336808229A6091
:1015500008F101087F08043609F12809B8E70120DD
:101560001AF0040F00F097802046FFF76BFD04F19E
:101570001806814625464FF00008B9F1000F00F02B
:10158000898019F0010F7ED021695FFA88FA0B6912
:101590004A6B04EB8A0022FA0AF28069D201806861
:1015A000D2B242EA03070740FB071CD54B6B01226E
:1015B00002FA08F223EA02034B63336801279F60B3
:1015C000A94B1B6851465B6820469847E378BB42AD
:1015D00009D1B8F1000F06D194F81131042B02D1D2
:1015E0002046FFF735FD380742BF336808279F6064
:1015F000F90642BF336810279F607A0642BF3368FE
:1016000040279F60BB0742BF336802279F603F06A9
:1016100039D5D5F83031D5F83421C2EB030BD5F8E4
:1016200024315B4528BF5B4603F1030B4FEA9B0B5C
:1016300033689B699BB25B4522D9D5F83471D5F8E4
:101640003031BB421CD9DBB1DB1BD5F82471D5F896
:1016500028119F4228BF1F46BBB252462046FFF7C3
:101660006FF9D5F828313B44C5F82831D5F8343125
:1016700007F1030B1F444FEA9B0BC5F83471D7E702
:10168000336880279F6008F101084FEA5909043642
:10169000283572E701209DF80050AE0742BFE3688D
:1016A00002225A61009B002B19DAA37A43B1D4F8C5
:1016B0000C31D4F80C216FF341036FF30003136076
:1016C0002269536823F001035360674B1B6820466F
:1016D0009B699847E3684FF000425A610120009BE4
:1016E000C3F3072631072DD500238DF80F3094F86A
:1016F00012318DF80F305C4B1B6820465B699847B0
:101700002369E2689B684FF400615161A27AC2B11B
:10171000DA0716D594F81531012B12D19DF80F3048
:10172000032B0ED1D4F80C311A6842F001021A6072
:101730001A6842F003021A604C4A136943F0060328
:10174000136101202B0708D5474B1B682046DB6837
:101750009847E36808225A610120EF0638D5E3680C
:101760009A6922F010029A611D6AC5F34343022B65
:1017700005F00F070DD0062B24D1082204F2CC511E
:101780002046FFF7F0F8282303FB0747C5F30A15A7
:1017900013E047F6F0732B40A3B1282303FB074760
:1017A000C5F30A152A46D7F880132046FFF7DBF861
:1017B000D7F880332B44C7F88033D7F88C331D44D7
:1017C000C7F88C53E268936943F0100393610120DA
:1017D000F50635D522695368002723F001035360CD
:1017E00039462046FFF78DF904F114023B46FF21EC
:1017F0006078834206D252F8040F8160D06B0133C7
:101800008160F5E7236901254FF0FF3265F30F078B
:101810009A6165F31F470B22DF615A611A611A68EA
:101820006FF30A121A602046FFF712FCE3684FF4C8
:1018300080525A610C4B1B6820461B69984728460A
:10184000B10622D52046FFF776FAE3682046DD6828
:10185000FFF762FA03280BD10023A3704FF4007343
:10186000A380092309E000BFA800002000ED00E0EC
:101870000123A3704023A380052363F38D25E36830
:101880004FF40052DD6001205A61009BC3F307450D
:10189000EA0609D50C4B1B682046DB699847E368CC
:1018A0004FF480125A610120AB0609D5064B1B6824
:1018B00020461B6A9847E3684FF400125A610120E2
:1018C00005B0BDE8F08F00BFA800002010B5074CA0
:1018D0002068FF2807D0064B064A9B681268064915
:1018E0009847FF232360002010BD00BF1800002090
:1018F00094000020080700203F0E002043230B80A7
:10190000004870471C0000201C4B5A68052A70B51F
:10191000194602F1010401D05C602DE00A7A00232F
:10192000012A4B6028D0CA68B2F5006F08BFCB60AF
:10193000CD680B69114A9D4202D1002313721BE04E
:101940008CBFC5F500635B1B53614C690B4E402C8B
:10195000AAB205D94035403CF5607461402304E0EB
:10196000A3B22C44F4600024746101240C72044975
:101970000A448121FFF7ECFC002070BD080700201D
:10198000470E002038B5282303FB0101074D084B03
:10199000B1F88C131B6904462846984740232A4611
:1019A00001212046FFF7AEFC002038BDFF0D0020CE
:1019B00094000020F8B50A7812F0600406460D463F
:1019C00027D0202C21D1CC884B78BCB112060BD566
:1019D000214A2249976818462246B847EA881F4993
:1019E000304600F07BFA07E01D4A1C4913601D4B8E
:1019F00022461C6000F08AFA00242BE0164A214699
:101A0000956818462246A84724E000F0DDFA022433
:101A100020E04B780A2B11D00B2B14D0062B19D1B8
:101A20004B881B0A212B05D1CA880F493A2A28BFA7
:101A30003A2201E00D493A22304601E00C490122E8
:101A400000F04CFA06E08B7813B9064B9C6101E07C
:101A500000F0BAFA2046F8BD940000203F0E0020A6
:101A600018000020080700202E000020250000207C
:101A70002007002010B581210446FFF72CFC01212E
:101A80002046FFF728FC82212046FFF724FC024B6A
:101A90005B689847002010BD9400002038B54022B4
:101AA000044602238121FFF7F3FB02234022012198
:101AB0002046FFF7EDFB8221032308222046FFF793
:101AC000E7FB084B022200251A715D71064B1B686B
:101AD00098474023054A01212046FFF713FC28467A
:101AE00038BD00BFD800002094000020FF0D00206A
:101AF00038B510490B7A012B19D14C690CB90C720D
:101B000015E0402C07D9CB68403C9AB24033CB60FB
:101B10004C61402306E0CD68A3B22C44CC60002485
:101B2000AAB24C6104490A448121FFF711FC00204C
:101B300038BD00BF08070020470E00200020704776
:101B400070B5094A094C0144002588420AD013683F
:101B500010F8016BE6540133B3F5006F28BF2B4634
:101B60001360F2E7002070BD18070020470E002028
:101B700038B504464518AC4204D014F8010BFEF702
:101B80000BFDF8E7002038BD202812D021281BD1FA
:101B90000E4B1A680A701A68120A4A705A888A70BC
:101BA000DA78CA701A790A715A794A719B798B71FD
:101BB0000AE0064B0A681A600A791A714A795A7162
:101BC0008A799A710122DA71002070478C00002016
:101BD0000020704710B5D0F8E83504461B699847D7
:101BE000032384F81231002010BD08B590F812319B
:101BF00080F81331042380F81231D0F8E835DB681F
:101C00009847002008BD08B5D0F8E435DB6903B17A
:101C10009847002008BD08B5D0F8E4351B6A9847FE
:101C2000002008BD08B5D0F8E4355B6A984700206D
:101C300008BD002310B5194604464022FFF728FBD3
:101C40004022802100232046FFF722FB012384F855
:101C50001231D4F8E835A0785B689847002010BDB1
:101C600013B56946044600F08DF99DF8001001F0A7
:101C70001F03012B0CD006D3022B0ED16946204640
:101C800000F0F2FA0EE06946204600F0ABF909E0F8
:101C90006946204600F0D0FA04E001F080012046B9
:101CA000FFF775FB002002B010BD38B504460029CF
:101CB00048D190F81131022B38D1D0F83821D0F822
:101CC00024319A4212D9C178012908BFD0F82811CD
:101CD000A2EB030204BF5B18C0F82831C0F838211A
:101CE000D0F8281192B200F009F91FE0D0F83C2199
:101CF000B2FBF3F503FB15255DB9934209D8D0F883
:101D000040319A4205D22A4600F0F8F8C4F8405112
:101D10000CE0D4F8E435DB682BB194F81221032AE7
:101D200001D120469847204600F017F994F8163163
:101D3000012B10D1094A236912685A60002384F8E4
:101D4000163108E0D0F8E4355B6923B190F8122130
:101D5000032A00D19847002038BD00BF4816002054
:101D600010B5044661BB90F81131032B31D1D0F886
:101D70009033D0F87C23934215D9C178012908BF4C
:101D8000D0F88013A3EB020304BF8918C0F88013B6
:101D90009A4228BF1A46C0F8903392B2D0F8801306
:101DA00000F0C4F815E0D0F8E4351B6923B190F8D1
:101DB0001221032A00D19847204600F0BFF808E01E
:101DC000D0F8E4359B6923B190F81221032A00D1A1
:101DD0009847002010BD2DE9F0410446164698466C
:101DE0000D46069FFEF706FD20462946C4F8E48509
:101DF000C4F8E875C4F8EC65FFF7FCF9D4F8E835E9
:101E00001B6898472046BDE8F041FEF745BD00201D
:101E10007047D0F8E43510B504461B689847D4F8ED
:101E2000E8359B689847002010BD08B5D0F8E43528
:101E30005B689847002008BD12230B80004870475C
:101E4000D800002004230B8000487047EA000020DF
:101E500010B5044C04480A46214600F067FA2046B3
:101E600010BD00BF4C1600205A90000810B5044C5D
:101E700004480A46214600F059FA204610BD00BF2A
:101E80004C1600207B90000810B5044C04480A460C
:101E9000214600F04BFA204610BD00BF4C16002032
:101EA0008E90000810B5044C04480A46214600F004
:101EB0003DFA204610BD00BF4C1600209B90000844
:101EC00010B5044C04480A46214600F02FFA20467B
:101ED00010BD00BF4C160020A690000810B50446A7
:101EE0001346C4F83C21C4F83821022280F811219D
:101EF0000A460021FFF72CFA002010BD08B5134652
:101F00000A460021FFF724FA002008BD10B5044658
:101F10001346C4F89423C4F89023032280F81121B7
:101F20000A460021FFF7EEF9002010BD08B5134660
:101F30000A460021FFF7E6F9002008BD10B504238A
:101F400080F81131002304461A461946FFF700FABB
:101F50002046FFF77DF8002010BD10B5052380F85E
:101F60001131002304461A461946FFF7CBF92046E3
:101F7000FFF76EF8002010BD282303FB0101B1F824
:101F80008C03704790F8CC350B7090F8CD354B70C2
:101F900090F8CF2590F8CE3503EB02234B8090F8D4
:101FA000D12590F8D03503EB02238B8090F8D32510
:101FB00090F8D23503EB02239BB2CB80C0F84031BE
:101FC000012380F81131704710B580210446FFF7D6
:101FD000DEF920460021FFF7DAF92046BDE810407F
:101FE000FFF736B873B54B7804460D46092B00F25F
:101FF0001381DFE813F0C400FF001101D7001101C5
:102000006B000A001101B6008A004B881A0A013AD7
:10201000062A00F20181DFE812F00700190025000E
:10202000FF00FF00FF00FF00D0F8EC3580781B6850
:102030000DF106019847EB88402B03D094F812313C
:10204000012B33D10823ADF806302FE0D0F8E4356A
:1020500080789B6A0DF10601984702234370C4F80B
:10206000F00523E0DBB2052B00F2D680DFE803F0B9
:1020700003070B0F1317D0F8EC355B6812E0D0F8AC
:10208000EC359B680EE0D0F8EC35DB680AE0D0F860
:10209000EC351B6906E0D0F8EC355B6902E0D0F85E
:1020A000EC359B69A0780DF106019847BDF8062034
:1020B000002A00F0B580EB88002B00F0B1809A4236
:1020C00028BF1A46ADF80620014667E08B88002B32
:1020D00040F0A280CB88002B40F09E8090F8123117
:1020E0008E78032B06F07F0600F0968080F814614E
:1020F0003146FFF78AF92046FFF720FF0EB1022391
:1021000000E0012384F812318AE08978464E0129E3
:10211000317000F2818090F81231022B02D0032B33
:1021200009D079E0002961D00121032380F8101142
:1021300080F8123111E039B9022380F8123180F8A9
:102140001011FFF772FE51E090F8101101294DD0E7
:10215000FFF76BFE317884F810112046FFF759FE27
:1021600044E0CA88012A57D190F81231022B04D0DA
:10217000032B51D100F5887110E02C490EE090F846
:102180001231023B012B47D8274B01229A60D0F82D
:1021900018210AB103229A60254902222046FFF73E
:1021A0009DFE3DE04B88012B2DD0022B38D18B8832
:1021B00013F0FF0F34D102691B0A013B5268042B54
:1021C0000FD8DFE803F0030507090B00012306E041
:1021D000022304E0032302E0042300E0052363F369
:1021E0000612144B1A60012384F816312046FFF7BB
:1021F000A5FE15E090F81231023B012B0CD84B885C
:10220000012B0DD10023C4F81831D4F8E435294648
:102210009B6820469847E9E729462046FFF7D4FE09
:10222000002002B070BD00BF240700202807002056
:102230002C0700204816002038B590F81231032BE7
:1022400004460D460CD10B79012B09D8D0F8E435A2
:102250009B689847EB882BB92046FFF76FFE01E09B
:10226000FFF7B2FE002038BD70B54E788A88012E87
:1022700004460D46D3B210D027D3032E50D190F888
:102280001221022A28D0032A48D14A889AB95E0628
:1022900011D01946FFF77BF80DE090F81221022AC1
:1022A0001AD0032A3AD14A88002A39D1590608D0CF
:1022B0001946FFF785F8D4F8E43529469B6820468F
:1022C00098472046FFF73AFE2AE090F81251022D77
:1022D00002D0032D06D021E05A0621D01946FFF77F
:1022E00056F81DE012F0800F4FF028000D4910D075
:1022F00003F07F0200FB024393F81E310BB1012370
:1023000000E00023CB60022207492046FFF7E6FDEC
:1023100006E000FB034393F87633EFE7FFF754FE44
:10232000002070BD240700203007002030B5C0B168
:1023300005462B1A15F8014BDBB2002CF9D15B00D6
:10234000023313800B7003234B700138022310F803
:10235000015F35B15A1CD2B2CD540233DBB28C547A
:10236000F5E730BD014B05221A70704714010020BB
:10237000014B06221A70704714010020014B052200
:102380001A70704714010020014B05221A70704723
:1023900014010020014B05221A707047140100201F
:1023A000014B05221A70704714010020014B0522D1
:1023B0001A70704714010020014B1878704700BF55
:1023C0001401002040F0BF60024B40F40030D860A0
:1023D000704700BF00ED00E0C278037830B51AB353
:1023E000174A4578D168C943C1F30221C1F10402FB
:1023F000D2B205FA02F2D4B20F220A4181780A4021
:10240000224303F1604303F561431201D2B283F822
:10241000002303780122590903F01F0302FA03F392
:10242000084A42F8213030BD5A09012103F01F0348
:1024300001FA03F32032034941F8223030BD00BFD6
:1024400000ED00E000E100E021F0604121F07F01BB
:10245000014B08439860704700ED00E0044B1A6997
:1024600009B1104301E022EA00001861704700BF83
:1024700000ED00E0044B1A6804280CBF42F004028F
:1024800022F004021A60704710E000E008B5012154
:102490004FF4807003F09EFF00214FF48070BDE880
:1024A000084003F097BF436823F040720B6822F4A2
:1024B000807213430A7943EA022343600A69CB68B6
:1024C0001A438B6810B51A438468084B23401343A2
:1024D0004A7943EA42038360C36A23F470020B7DA6
:1024E000013BDBB242EA0353C36210BDFDF7FFC0FC
:1024F00000230360037143718360C36003610123A0
:102500000375704710B5074C074B6268134090E89D
:102510000600114382681143C2680A431343636093
:1025200010BD00BF00230140E030FCFF002303602A
:1025300043608360C3607047836811B143F0010357
:1025400001E023F0010383607047436823F44003F4
:1025500023F40073194341607047416282627047FF
:10256000436823F01F03194341607047044B5A68C6
:1025700010B142F4000201E022F400025A607047F8
:1025800000230140044B5A6810B142F4800201E07C
:1025900022F480025A60704700230140092970B577
:1025A0000DD9A1F10A04C66804EB44040725A5402F
:1025B00026EA050503FA04F42C43C4600AE0066920
:1025C00001EB41040725A54026EA050503FA04F4BA
:1025D0002C430461062A0CD8013A446B02EB8202B8
:1025E0001F23934024EA030301FA02F21A434263D1
:1025F00070BD0C2A0CD8073A046B02EB82021F2331
:10260000934024EA030301FA02F21A43026370BD05
:102610000D3AC46A02EB82021F23934024EA0303AB
:1026200001FA02F21A43C26270BD836843F080432C
:1026300083607047836811B143F4806301E023F441
:10264000806383607047836811B143F0020301E047
:1026500023F00203836070474368013923F4604329
:1026600043EA413343607047436811B143F4006368
:1026700001E023F4006343607047C06C80B2704790
:10268000014B1868704700BF08230140836811B1EF
:1026900043F4807301E023F48073836070478368A0
:1026A00011B143F4007301E023F4007383607047B9
:1026B000044B5A6810B142F4005201E022F4005277
:1026C0005A60704700230140092970B50DD9A1F166
:1026D0000A04C66804EB44040725A54026EA05055C
:1026E00003FA04F42C43C4600AE0066901EB4104D8
:1026F0000725A54026EA050503FA04F42C430461E6
:10270000836B0232C3F30154121BD2B202EB82027A
:102710001F24944023EA040391401943816370BD50
:10272000836B013923F4401343EA015383637047F9
:1027300082B0002301930190019B19440191019BF8
:102740001A6002B07047836823F4702319438160D4
:102750007047836823F4401319438160704783688E
:1027600043F48003836070478068C0F380507047F3
:10277000FFF7FABF436811B143F4806301E023F42B
:10278000806343607047436811B143F4805301E0B4
:1027900023F480534360704782B00023019301907B
:1027A000019B283319440191019B186880B202B043
:1027B00070470123C9B203FA01F143680AB1194312
:1027C00001E023EA0101416070470368194214BF28
:1027D000012000207047C9430160704742680068CB
:1027E00010EA112007D00123C9B203FA01F1114206
:1027F00014BF1846002070476FEA1121016070472E
:1028000008B50C4B98424FF0010107D14FF0007012
:1028100003F0D4FD00214FF0007006E04FF080601F
:1028200003F0CCFD00214FF08060BDE8084003F0CC
:10283000C5BD00BF00640040036823F002030360CD
:10284000036843F0010303604FF480334268D2070A
:1028500001D4013BFAD1436813F0010355D08B79C1
:10286000012B03680CBF43F0800323F08003036057
:10287000CB79012B03680CBF43F0400323F04003E6
:1028800003600B7A012B03680CBF43F0200323F095
:10289000200303604B7A012B03680CBF43F0100345
:1028A00023F0100303608B7A012B03680CBF43F005
:1028B000080323F008030360CB7A012B03680CBFE5
:1028C00043F0040323F004030360CB788A781B06EB
:1028D00043EA82730A7943EA02434A7943EA02539C
:1028E0000A88013A1343C361036823F001030360BC
:1028F0004FF480334268D20701D5013BFAD14068DA
:1029000000F0010080F00100704718467047837A9C
:10291000012202FA03F3344AD2F8001241F0010115
:1029200070B5C2F80012D2F81C12DC432140C2F884
:102930001C12017BA1B9D2F80C12C688458821402F
:10294000C2F80C12817A483145EA064542F8315006
:102950000288857A8188ED0042EA0141234A51517B
:10296000027B012A15D1204A0688D2F80C1245882C
:102970001943C2F80C12817A483145EA064542F8FB
:102980003150C288857A8188ED0042EA0141174AB8
:102990005151C27A14491AB9D1F80422224002E0F6
:1029A000D1F804221A430589C1F804220E4A2DB930
:1029B000D1F814522C40C1F8144206E0012D02BF98
:1029C000D2F814121943C2F81412417B012902BF34
:1029D000D2F81C120B43C2F81C32D2F8003223F09A
:1029E0000103C2F8003270BD00640040446600403C
:1029F00000238371C371037243728372C372837045
:102A0000C3700323037102234371012303807047C2
:102A10000D4BD3F8002242F00102C3F80022D3F894
:102A2000002222F47C5222F00E02C3F80022D3F8D6
:102A3000002242EA0020C3F80002D3F8002222F06C
:102A40000102C3F80022704700640040036811B11E
:102A500043F4803301E023F480330360704703685C
:102A600099B143F080030360D0F8843143F480735C
:102A7000C0F88431D0F8943143F48073C0F89431B5
:102A8000D0F8A43143F4807312E023F08003036094
:102A9000D0F8843123F48073C0F88431D0F89431B5
:102AA00023F48073C0F89431D0F8A43123F48073F8
:102AB000C0F8A43170478368F0B55C01024607D4C2
:102AC0008368180106D49368DB0005D40420F0BDA8
:102AD000002002E0012000E0022002EB0013D3F806
:102AE000804104F00104C3F880410D7A4C7A2DB97D
:102AF0000E68D3F8805144EA465405E04F68D3F895
:102B0000806145EAC70535432C43C3F880418C7A80
:102B100004F00F048C72D3F8844124F00F04C3F83E
:102B20008441D3F884418D7A2C43C3F8844102EB6D
:102B30000012D1F80B40C2F88841D1F80F10C2F84A
:102B40008C11D3F8802142F00102C3F88021F0BD3E
:102B5000012908D004D3022918D182680C4B04E063
:102B600082680C4B01E082680B4B1340094A934288
:102B70000AD001D833B909E0074A934204D0044A85
:102B8000934201D000207047012070470220704717
:102B9000000003100300000400030008012907D00F
:102BA00002D3022908D07047836843F0800306E00F
:102BB000836843F4004302E0836843F400038360C6
:102BC000704700EB011310B5D3F8B04104F00404D2
:102BD000E4B2147224B9D3F8B041640D146003E078
:102BE000D3F8B041E4085460D3F8B04104F00204D3
:102BF0005472D3F8B44104F00F049472D3F8B43192
:102C00001B0AD37400EB0113D3F8B841D472D3F884
:102C1000B841240A1473D3F8B841240C5473D3F880
:102C2000B841240E9473D3F8BC41D473D3F8BC419B
:102C3000240A1474D3F8BC41240C5474D3F8BC3166
:102C40001B0E937421B9C36843F02003C36010BD09
:102C5000036943F02003036110BD21B9C36843F049
:102C60002003C3607047036943F02003036170478A
:102C700009B9C06802E0012903D1006900F003002E
:102C800070470020704799B9036823F0030343F0AD
:102C9000010303604FF48033426802F00302012A0B
:102CA00001D0013BF8D1406800F00300012828E082
:102CB000012911D1036823F0030303604FF480332B
:102CC0004268920701D0013BFAD1436813F0030F29
:102CD0000CBF012000207047022916D1036823F0A1
:102CE000030343F0020303604FF48033426802F0B1
:102CF0000302022A01D0013BF8D1406800F0030032
:102D0000022814BF0020012070470020704703688C
:102D100023F0030343F002030360406800F0030064
:102D2000831E584258417047036823F00203036032
:102D30004FF480334268920701D5013BFAD14068D5
:102D400080F00200C0F340007047806900F070001E
:102D500070478069000E70478069C0F30740704774
:102D600043690AB1194301E023EA01014161704757
:102D700011F4700F01D083690BE0CB0101D54368DA
:102D800007E00A0101D5836803E08B014CBFC368EB
:102D90000369C3F313030B4214BF012000207047E3
:102DA0000A4B994202D10023836170478A01C1F323
:102DB000130301D5C36070474A0101D50361704711
:102DC0000A014CBF83604360704700BF7000F03061
:102DD00043690B405CD0402942D010D8042933D03D
:102DE00005D8012927D0022954D1C0682FE0102925
:102DF0002CD0202930D008294CD1C06835E0B1F55D
:102E0000006F3BD00CD8B1F5007F31D0B1F5806FA9
:102E100032D0B1F5807F3DD1806900F0010070476C
:102E2000B1F5803F1ED0B1F5003F1DD0B1F5004F88
:102E300030D1406829E0806800F0013020F08070D7
:102E4000003018BF01207047C06806E0006910F02C
:102E5000030018BF012070470069C0F3C00070472D
:102E6000006902E04068F8E74068C0F3001070476E
:102E70008069C0F340007047806906E0836913F001
:102E8000700F14BF012000207047C0F3800070470E
:102E90001846704700207047B1F5807F35D00CD8B8
:102EA000082924D004D801291CD004291DD070473A
:102EB00020291FD040291FD07047B1F5006F22D0C4
:102EC00006D8B1F5007F20D0B1F5806F1DD07047D6
:102ED000B1F5803F13D0B1F5003F12D0B1F5004FEE
:102EE00015D110E00A4B83607047082300E01023DF
:102EF000C3607047082300E0102303617047082374
:102F000004E0102302E00023836104234360704740
:102F100001010100014B01229A607047003002401C
:102F2000014B18601868704700300240054B00EBF9
:102F30008101884203D050F8042B1A60F9E7014B55
:102F40001868704700300240014B1868704700BF96
:102F500000300240014B1871704700BF0030024042
:102F6000014B1879704700BF003002402DE9F04155
:102F70008EB017460546002606A80C4698460196D0
:102F800000F080FFC02F10D0B7F5807F21D0802FB8
:102F90003AD1059623681BBA0A9363681BBA0B9350
:102FA000A3681BBA0C93E3682CE04FF4807305937D
:102FB00023681BBA089363681BBA0993A3681BBAFA
:102FC0000A93E3681BBA0B9323691BBA0C936369DA
:102FD00018E04FF40073059323681BBA06936368E7
:102FE0001BBA0793A3681BBA0893E3681BBA09933B
:102FF00023691BBA0A9363691BBA0B93A3691BBAB3
:103000000C93E3691BBA0D93FDB900F061FF042333
:10301000029302A838230393049500F0EEFE06A85D
:1030200000F01CFF012000F05BFF102001F056F8BB
:10303000019B01330193019BB3F5803F02D000282F
:10304000F3D100E040B9042303E006A800F006FF36
:1030500000230293012500E00025202302A803930A
:103060008023049300F0C9FE00F032FF012000F03D
:1030700037FF01F02BF800283AD0159F4446002670
:10308000149AC8EB04039A422ED96DB3206800F05D
:1030900033FF606800F030FFA06800F02DFFE068AB
:1030A00000F02AFF10340196102001F017F8019B60
:1030B00001330193019BB3F5803F02D00028F3D187
:1030C00000E078B900F01EFF386000F01BFF786068
:1030D00000F018FFB86000F015FF103747F8040C37
:1030E0000125CDE70025CBE7002000F0F9FE2846BA
:1030F0000EB0BDE8F0812DE9F04693B09946074641
:103100004FF0000A0AA80D4614461A9ECDF804A0F6
:1031100000F0B8FEB9F1C00F12D0B9F5807F23D00E
:10312000B9F1800F3BD1CDF814A023681BBA0E93E0
:1031300063681BBA0F93A3681BBA1093E3682CE073
:103140004FF48073059323681BBA0C9363681BBA12
:103150000D93A3681BBA0E93E3681BBA0F93236900
:103160001BBA1093636918E04FF40073059323684A
:103170001BBA0A9363681BBA0B93A3681BBA0C9320
:10318000E3681BBA0D9323691BBA0E9363691BBADC
:103190000F93A3691BBA1093E3691BBA11932B68B1
:1031A0001BBA06936B681BBA0793AB681BBA0893EC
:1031B000EB681BBA0993FFB900F08AFE042302935F
:1031C00002A838230393049700F017FE0AA800F022
:1031D00045FE012000F084FE102000F07FFF019BDF
:1031E00001330193019BB3F5803F02D00028F3D156
:1031F00000E040B9042303E00AA800F02FFE0023FA
:103200000293012500E000252823039302A88023D0
:10321000049300F0F2FD06A800F03EFE00F058FE18
:10322000012000F05DFE00F051FF00283BD01C9F04
:1032300034464FF000091B9AA31B9A422FD975B34D
:10324000206800F059FE606800F056FEA06800F0AB
:1032500053FEE06800F050FE1034CDF804901020CA
:1032600000F03CFF019B01330193019BB3F5803FCC
:1032700002D00028F3D100E078B900F043FE3860B6
:1032800000F040FE786000F03DFEB86000F03AFECD
:10329000103747F8040C0125CDE70025CBE70020C7
:1032A00000F01EFE284613B0BDE8F0862DE9F0467A
:1032B00093B0994607464FF0000A0AA80E461446F6
:1032C0001A9DCDF804A000F0DDFDB9F1C00F12D0B9
:1032D000B9F5807F23D0B9F1800F3BD1CDF814A090
:1032E00023681BBA0E9363681BBA0F93A3681BBABB
:1032F0001093E3682CE04FF48073059323681BBAA6
:103300000C9363681BBA0D93A3681BBA0E93E36812
:103310001BBA0F9323691BBA1093636918E04FF42B
:103320000073059323681BBA0A9363681BBA0B9357
:10333000A3681BBA0C93E3681BBA0D9323691BBAED
:103340000E9363691BBA0F93A3691BBA1093E369C9
:103350001BBA119333681BBA069373681BBA0793A1
:10336000B3681BBA0893F3681BBA0AA8099300F064
:1033700075FD0FB9042300E000230293302303936B
:1033800002A88023049300F038FD06A800F084FD15
:1033900000F09EFD012000F0A3FD00F097FE002844
:1033A0003CD01C9F2E4601244FF000091B9A731B32
:1033B0009A422FD974B3306800F09EFD706800F017
:1033C0009BFDB06800F098FDF06800F095FD1036A8
:1033D000CDF80490102000F081FE019B0133019391
:1033E000019BB3F5803F02D00028F3D100E078B90B
:1033F00000F088FD386000F085FD786000F082FD07
:10340000B86000F07FFD103747F8040C0124CDE7C9
:103410000024CBE7002000F063FD204613B0BDE898
:10342000F0862DE9F04F97B08346DDF88C8002934B
:1034300014464FEAC80300220EA80391219F00936F
:10344000DDF888A0259E05920192249D00F01AFDCA
:10345000029B0399C02B4FEAC70911D0B3F5807FB7
:1034600022D0802B019A3AD1099223681BBA129379
:1034700063681BBA1393A3681BBA1493E3682CE028
:103480004FF48073099323681BBA109363681BBAC7
:103490001193A3681BBA1293E3681BBA13932369B1
:1034A0001BBA1493636918E04FF4007309932368FF
:1034B0001BBA0E9363681BBA0F93A3681BBA1093D1
:1034C000E3681BBA119323691BBA129363691BBA91
:1034D0001393A3691BBA1493E3691BBA15930B6882
:1034E0001BBA0A934B681BBA0B938B681BBA0C93DD
:1034F000CB681BBABBF1010F0D9340F0CE8000F0FA
:10350000E7FC0EA800F0AAFC0AA800F0C5FC4FF4E6
:1035100000230024079306A880230893069400F054
:103520006CFC204600F0CAFC584600F0D9FC00F0C4
:10353000CDFD0128FBD0B8F1000F01D1012435E009
:103540004FF4803000F0BAFC012000F0C9FC00F01C
:10355000BDFD08B1544613E000207CE1012000F0DD
:10356000BDFD0028FAD0206800F0C6FC606800F0BD
:10357000C3FCA06800F0C0FCE06800F0BDFC1034A3
:10358000CAEB04039845E9D800230593102000F006
:10359000A5FD059B01330593059BB3F5803F02D044
:1035A0000028F3D1CAE7B0FA80F46409002F53D0A1
:1035B0004FF4003000F082FC012000F091FC00F09C
:1035C00085FD0028C8D0DDF880804FF0000A209BE0
:1035D000C3EB08039F423FD9002C3DD0012000F0EF
:1035E0007DFD0028FAD0D8F8000000F085FCD8F85E
:1035F000040000F081FCD8F8080000F07DFCD8F849
:103600000C0000F079FC08F11008CDF814A010208F
:1036100000F064FD059B01330593059BB3F5803FE6
:1036200002D00028F3D100E0A0B9042000F056FD3C
:103630000028FAD000F066FC286000F063FC6860A7
:1036400000F060FCA86000F05DFC103545F8040C4B
:103650000124BCE70024BAE74FF4403000F02EFC10
:10366000012000F03DFC00F031FD00283FF474AF74
:10367000002528BA00F040FC009B18BA00F03CFC82
:1036800028BA00F039FC99FA89F000F035FC0420E2
:1036900000F024FD0028FAD0CDE000F019FC0EA8BF
:1036A00000F0DCFB0AA800F0F7FB042306934FF4BC
:1036B0000023079306A88023089300F09EFB0020B8
:1036C00000F0FCFB012000F00BFC00F0FFFC0128E7
:1036D000FBD0B8F1000F01D1012435E04FF4803068
:1036E00000F0ECFB012000F0FBFB00F0EFFC0028F9
:1036F0003FF432AF5446CAEB0403984512D9012077
:1037000000F0ECFC0028FAD0206800F0F5FB6068BF
:1037100000F0F2FBA06800F0EFFBE06800F0ECFBCB
:103720001034E8E700230593102000F0D7FC059B38
:1037300001330593059BB3F5803F02D00028F3D1F8
:10374000CAE7B0FA80F46409002F54D04FF4003077
:1037500000F0B4FB012000F0C3FB00F0B7FC002830
:103760003FF4FAAEDDF880804FF0000A209BC3EBF7
:1037700008039F423FD9002C3DD0012000F0AEFC51
:103780000028FAD0D8F8000000F0B6FBD8F8040002
:1037900000F0B2FBD8F8080000F0AEFBD8F80C003F
:1037A00000F0AAFB08F11008CDF814A0102000F0DA
:1037B00095FC059B01330593059BB3F5803F02D033
:1037C0000028F3D100E0A0B9042000F087FC002815
:1037D000FAD000F097FB286000F094FB686000F0DE
:1037E00091FBA86000F08EFB103545F8040C012415
:1037F000BCE70024BAE74FF4403000F05FFB012043
:1038000000F06EFB00F062FC00283FF4A5AE00253E
:1038100028BA00F071FB009B18BA00F06DFB28BAC3
:1038200000F06AFB99FA89F000F066FB042000F0D2
:1038300055FC0028FAD000F065FB306000F062FB18
:10384000706000F05FFBB06000F05CFBF060002097
:1038500000F046FB204617B0BDE8F08F2DE9F04F91
:103860004FF00008A1B08DE80300924641461022B7
:103870000CA81E462E9CBDF8A8B0DDF8B0902F9D78
:10388000CDF80C80309F05F051F81022414610A869
:1038900005F04CF81022414614A805F047F80CB981
:1038A0002D9D31E0B4F57F4F05D2220A6C702A704D
:1038B000023402210CE0FF222A70FE226C716A7031
:1038C00085F8028085F8038085F804800634062197
:1038D0002D9A29441019824204D012F801EB01F804
:1038E00001EBF8E723070BD024F00F0210322C4431
:1038F0000020611B8A4202D304F8010BF9E7144649
:1039000014B140228DF830209DF8C820019B02217F
:10391000023A92FBF1F2CAF10E0101F007009DF8A4
:103920003010D200014302F038020A438DF83020F3
:10393000591E002252450DF1300805D0013211F810
:10394000010F08F80200F5E7524600210C2A03D8BF
:1039500001320CA81154F9E74FEA19228DF83E20E4
:103960009DF830208DF83F9002F007028DF840203E
:1039700001229244524505D20CA9505C10A9505422
:103980000132F7E79DF84F2018A842F001028DF8A8
:103990004F2000F077FABBF1C00F12D0BBF5807F4B
:1039A00023D0BBF1800F3BD10023079333681BBAB0
:1039B0001C9373681BBA1D93B3681BBA1E93F368FC
:1039C0002CE04FF48073079333681BBA1A93736823
:1039D0001BBA1B93B3681BBA1C93F3681BBA1D93E5
:1039E00033691BBA1E93736918E04FF40073079391
:1039F00033681BBA189373681BBA1993B3681BBA60
:103A00001A93F3681BBA1B9333691BBA1C9373692F
:103A10001BBA1D93B3691BBA1E93F3691BBA1F939C
:103A2000109E33BA0893119B1BBA0993129B1BBAC1
:103A30000A93139B1BBA0B93009B012B40F0DB8076
:103A400000F046FA18A800F009FA08A800F024FAD5
:103A50004FF008134FF0000A059304A88023069343
:103A6000CDF810A000F0C9F9504600F027FA0C98E4
:103A700000F042FAD8F8040000F03EFAD8F8080046
:103A800000F03AFAD8F80C0000F036FA009800F08E
:103A900027FA00F01BFB0128FBD00CB901243AE007
:103AA0004FF4803000F00AFA012000F019FA00F01B
:103AB0000DFB08B1A84618E000208FE1012000F0BE
:103AC0000DFB0028FAD0D8F8000000F015FAD8F85D
:103AD000040000F011FAD8F8080000F00DFAD8F848
:103AE0000C0000F009FA08F11008C5EB0803A34226
:103AF000E4D300230393102000F0F0FA039B01337A
:103B00000393039BB3F5803F02D00028F3D1C5E7B0
:103B1000B0FA80F46409B9F1000F4CD04FF40030D2
:103B200000F0CCF9012000F0DBF900F0CFFA00281A
:103B3000C2D02B9D4FF000082B9BEB1A99453AD928
:103B4000002C38D0012000F0C9FA0028FAD02868EB
:103B500000F0D2F9686800F0CFF9A86800F0CCF95D
:103B6000E86800F0C9F91035CDF80C80102000F09D
:103B7000B5FA039B01330393039BB3F5803F02D057
:103B80000028F3D100E0A0B9042000F0A7FA002833
:103B9000FAD000F0B7F9386000F0B4F9786000F0BE
:103BA000B1F9B86000F0AEF9103747F8040C012401
:103BB000C2E70024C0E74FF4403000F07FF9012055
:103BC00000F08EF900F082FA00283FF475AF30461D
:103BD00000F092F9119800F08FF9129800F08CF92A
:103BE000139820F0807000F087F9042000F076FA36
:103BF0000028FAD0D8E000F06BF918A800F02EF9F0
:103C000008A800F049F9042304934FF00813059322
:103C100004A88023069300F0F0F8002000F04EF98D
:103C20000C9800F069F9D8F8040000F065F9D8F8AC
:103C3000080000F061F9D8F80C0000F05DF90120EF
:103C400000F04EF900F042FA0128FBD00CB9012433
:103C50003AE04FF4803000F031F9012000F040F9F3
:103C600000F034FA00283FF427AFA846C5EB08035C
:103C7000A34217D2012000F031FA0028FAD0D8F878
:103C8000000000F039F9D8F8040000F035F9D8F850
:103C9000080000F031F9D8F80C0000F02DF908F117
:103CA0001008E3E700230393102000F017FA039BAA
:103CB00001330393039BB3F5803F02D00028F3D177
:103CC000C5E7B0FA80F46409B9F1000F4DD04FF4A4
:103CD000003000F0F3F8012000F002F900F0F6F9EE
:103CE00000283FF4E9AE2B9D4FF000082B9BEB1A08
:103CF00099453AD9002C38D0012000F0EFF900287E
:103D0000FAD0286800F0F8F8686800F0F5F8A868BC
:103D100000F0F2F8E86800F0EFF81035CDF80C800C
:103D2000102000F0DBF9039B01330393039BB3F5F1
:103D3000803F02D00028F3D100E0A0B9042000F0B9
:103D4000CDF90028FAD000F0DDF8386000F0DAF89C
:103D5000786000F0D7F8B86000F0D4F8103747F872
:103D6000040C0124C2E70024C0E74FF4403000F007
:103D7000A5F8012000F0B4F800F0A8F900283FF4FD
:103D80009BAE304600F0B8F8119800F0B5F81298E4
:103D900000F0B2F8139820F0807000F0ADF8042025
:103DA00000F09CF90028FAD000F0ACF8149000F074
:103DB000A9F8159000F0A6F8169000F0A3F80023DB
:103DC0001790329A934205D014AA31999A5CCA543A
:103DD0000133F6E7002000F083F8204621B0BDE86B
:103DE000F08F000008B50121102002F0CFFA002169
:103DF0001020BDE8084002F0C9BA144B1A6822F43A
:103E0000002222F0380210B51A601A6841680A438D
:103E10001A601A6822F0C0021A601C688268224385
:103E20001A6031F0180207D01A6822F440721A6042
:103E30001968C2680A431A601A6822F004021A60FC
:103E4000196802680A431A6010BD00BF00000650DE
:103E50000023036043608360C3607047084B0268BF
:103E60001A6242685A6282689A62C268DA620269B9
:103E70001A6342695A6382699A63C269DA63704756
:103E8000000006500023036043608360C360036149
:103E900043618361C3617047044B02681A644268DE
:103EA0005A6482689A64C268DA64704700000650F7
:103EB0000023036043608360C3607047034A136854
:103EC00023F4403318431060704700BF00000650D1
:103ED000024A136843F480431360704700000650A1
:103EE000044B1A6810B142F4004201E022F400428F
:103EF0001A60704700000650014B9860704700BF81
:103F000000000650014BD868704700BF0000065003
:103F100073B500230193354B1A6922F001021A612F
:103F20001A6812F0080F14BF112215224FF6FF76FF
:103F30005C68019D01350195019DB54204EA0204CA
:103F400001D0012CF4D1294B5C682240012A49D1CF
:103F50001C6924F002041C611C6824F400441C60E9
:103F60001D68234C2C4004601C6C44605C6C8460B5
:103F70009C6CC460DC6C04610C6844614C688461B6
:103F80008C68C461CC6804620C6944624C698462C8
:103F90008C69C969C4620163196D4163596D81639C
:103FA000996DC163D96D0164196E4164596E816464
:103FB000996EC164D96E0165196F4165596F81654C
:103FC000996FC165D96F0166D3F880104166D3F847
:103FD00084108166D3F88810C166D3F88C300367EB
:103FE000104600E0002002B070BD00BF0000065087
:103FF000FC030B00214B02681A6042691A62826955
:104000005A62C2699A62026ADA62426A1A63826A10
:104010005A63C26A9A63026BDA6342681A648268FE
:104020005A64C2689A640269DA64426B1A65826BE8
:104030005A65C26B9A65026CDA65426C1A66826CCC
:104040005A66C26C9A66026DDA66426D1A67826DB4
:104050005A67C26D9A67026EDA67426EC3F88020B3
:10406000826EC3F88420C26EC3F88820026FC3F842
:104070008C201A6842F400421A6070470000065013
:10408000054A136909B1184303E023EA000000F070
:10409000FF001061704700BF00000650054A5369D9
:1040A00009B1184303E023EA000000F0FF0050616B
:1040B000704700BF00000650034BDB69184214BF75
:1040C00001200020704700BF00000650024B186816
:1040D000C0F3C030704700BF00000650054B10F021
:1040E000200F14BF9B695B68184214BF0120002099
:1040F000704700BF000006502DE9F0438FB0064620
:10410000002506A80C46984617460195FFF7BAFE0B
:10411000012E1CBF042302934FF01003039302A847
:104120004FF0800308BF02950493FFF766FE2368F3
:104130001BBA089363681BBA06A80993FFF78EFEA3
:10414000FFF7C6FE0120FFF7CBFEFFF7BFFF70B3FE
:104150000025169E0124A946454524D21CB3785952
:10416000FFF7CAFE7B195868FFF7C6FECDF804902A
:104170001020FFF7B3FF019B01330193019BB3F5BF
:10418000803F02D00028F3D100E048B9FFF7BAFE23
:104190003060FFF7B7FE083646F8040C012400E053
:1041A00000240835D8E70020FFF79AFE20460FB01C
:1041B000BDE8F0832DE9F04393B0814600270AA8BB
:1041C0000D46984614460197FFF75CFEB9F1010FC2
:1041D0001CBF042302934FF01803039302A84FF06F
:1041E000800308BF02970493FFF707FE2B681BBAF2
:1041F0000C936B681BBA0AA80D93FFF72FFE236878
:104200001BBA069363681BBA06A80793FFF744FE20
:10421000FFF75EFE0120FFF763FEFFF757FF80B355
:1042200000251B9F01242E461A9B9D4225D224B3B4
:1042300058F80500FFF760FE08EB05035868FFF724
:104240005BFE01961020FFF749FF019B01330193AC
:10425000019BB3F5803F02D00028F3D100E048B9BC
:10426000FFF750FE3860FFF74DFE083747F8040CA3
:10427000012400E000240835D6E70020FFF730FED7
:10428000204613B0BDE8F0832DE9F0438FB0002540
:10429000804606A80C461F4616460195FFF7F2FD1C
:1042A000B8F1010F1CBF0423029302A84FF0800352
:1042B00008BF029504930395FFF79FFD23681BBA7F
:1042C000089363681BBA0993A3681BBA0A93E3684F
:1042D0001BBA0B9323691BBA0C9363691BBA06A81C
:1042E0000D93FFF7BBFDFFF7F3FD0120FFF7F8FD8E
:1042F000FFF7ECFE88B30025DDF858800124A946BD
:10430000BD4226D22CB37059FFF7F6FD73195868D9
:10431000FFF7F2FDCDF804901020FFF7DFFE019BC0
:1043200001330193019BB3F5803F02D00028F3D104
:1043300000E058B9FFF7E6FDC8F80000FFF7E2FD1E
:1043400008F1080848F8040C012400E000240835AE
:10435000D6E70020FFF7C4FD20460FB0BDE8F0838C
:104360002DE9F04393B0814600270AA80C469846F1
:1043700015460197FFF786FDB9F1010F1CBF042315
:1043800002934FF00803039302A84FF0800308BF85
:1043900002970493FFF731FD23681BBA0C936368FF
:1043A0001BBA0D93A3681BBA0E93E3681BBA0F9355
:1043B00023691BBA109363691BBA0AA81193FFF70C
:1043C0004DFD2B681BBA06936B681BBA06A80793B2
:1043D000FFF762FDFFF77CFD0120FFF781FDFFF78E
:1043E00075FE80B300251B9F01242E461A9B9D421B
:1043F00025D224B358F80500FFF77EFD08EB05032E
:104400005868FFF779FD01961020FFF767FE019BC2
:1044100001330193019BB3F5803F02D00028F3D113
:1044200000E048B9FFF76EFD3860FFF76BFD083715
:1044300047F8040C012400E000240835D6E70020EA
:10444000FFF74EFD204613B0BDE8F08308B501210B
:104450004FF0005001F0B2FF00214FF00050BDE8D6
:10446000084001F0ABBF30B5094D40F6FE732A6835
:10447000834022EA030391E8140014438A6814433A
:10448000CA68224302FA00F01843286030BD00BF1A
:10449000007400400023036043608360C360704782
:1044A000064A012319B1116883400B4303E01168E8
:1044B000834021EA03031360704700BF007400408B
:1044C000064A0009012319B1516883400B4303E0F8
:1044D0005168834021EA0303536070470074004031
:1044E000044B5A6810B142F0030201E022F00302CB
:1044F0005A6070470074004082B000230193054B5E
:104500000193019B083318440190019B196002B08C
:10451000704700BF0074004082B000230193054B38
:104520000193019B143318440190019B196002B060
:10453000704700BF007400400828044B0CBF42EADB
:10454000012242EA0142C250704700BF207400407D
:1045500082B000230193064B0193019B2C3303EBA4
:1045600090000190019B186880B202B0704700BFB4
:1045700000740040064A4FF4805319B1116883401B
:104580000B4303E01168834021EA03031360704783
:1045900000740040054B814012B11A68114302E0DB
:1045A0001A6822EA01011960704700BF00740040D8
:1045B000FFF7F0BF034B5B6B8140194214BF012032
:1045C0000020704700740040014B814059637047E0
:1045D00000740040054B1A685B6B814011EA0300D0
:1045E00003D00A4214BF012000207047007400402D
:1045F000014B81405963704700740040014B1868BB
:10460000000C7047002004E0024B1868C0F30B0058
:10461000704700BF002004E0044B5A6809B1104302
:1046200001E022EA00005860704700BF002004E06B
:10463000044B9A6809B1104301E022EA0000986037
:10464000704700BF002004E0044BDA6809B1104352
:1046500001E022EA0000D860704700BF002004E0BB
:10466000054B00221F211A60DA6059619A61DA61F4
:104670001A625A62704700BF0000055001884288E4
:104680000A43818810B50C4C0A43C18823680A4349
:10469000018923F4804323F001030A434189236005
:1046A00023680A43818923F47F630A4323F00203CA
:1046B00092B21343236010BD000005500023038015
:1046C00043808380C3800381438183817047028854
:1046D0004388818843EA0243034A1362C38843EA5A
:1046E00001435362704700BF00000550044B1A6835
:1046F00010B142F0040201E022F004021A60704797
:1047000000000550014B02689A6170470000055097
:10471000044B1A6810B142F0080201E022F00802CE
:104720001A60704700000550044B1A6810B142F43B
:10473000804201E022F480421A6070470000055078
:10474000044B1A6810B142F0010201E022F00102AC
:104750001A60704700000550014B986A704700BF0F
:1047600000000550044BDA6809B1104302E0C04371
:1047700080B21040D860704700000550020B064B15
:1047800001D19B6803E0022A0CBF5B681B691842D9
:1047900014BF01200020704700000550014B5861F4
:1047A000704700BF00000550034B1B69184214BF3F
:1047B00001200020704700BF00000550014B5861E8
:1047C000704700BF00000550036823F00103036039
:1047D0000023036043608360C3600361212343615E
:1047E000294B984217D0294B98421BD0284B98420E
:1047F00020D0284B984225D0274B98422AD0274BCF
:1048000098422ED0264B984232D0264B984236D032
:10481000254B984203D13D2243F8082C7047234B87
:10482000984204D14FF4746243F8202C7047204B17
:10483000984204D14FF4741243F8382C70471D4B42
:10484000984204D14FF0746243F8502C70471A4BD1
:10485000984203D1194A43F8642C7047184B984288
:1048600003D1184A43F87C2C7047174B984203D168
:10487000164A43F8942C7047154B984203D14FF0D9
:104880003D5243F8AC2C7047106002402860024053
:104890004060024058600240706002408860024000
:1048A000A0600240B86002401064024028640240E8
:1048B0004064024058640240706402403D000020A1
:1048C00088640240400F0020A064024000003D20A8
:1048D000B86402400268134B10B513400C68CA68F4
:1048E00014434A6914438A691443CA6914430A6A1F
:1048F00014434A6A14438A6A14434A6B14438A6B0A
:104900002243134303604369CC6A23F007020B6B15
:104910002343134343610B6943604B6883608B6897
:10492000C36010BD3F801CF00023036043608360C0
:10493000C360036143618361C36103624362836255
:10494000C3620363436383637047036811B143F039
:10495000010301E023F0010303607047036811B114
:1049600043F4004301E023F400430360704703680D
:1049700011B143F0200301E023F0200303607047EE
:1049800041607047406880B27047036812B143F4D9
:10499000002301E023F400230360016170470368F2
:1049A00011B143F4802301E023F4802303607047B6
:1049B0000AB101617047C16070470068C0F3C04030
:1049C0007047006800F001007047406900F038004F
:1049D00070470A4B0A4A10B50A4CA04294BF1846C9
:1049E00010468B004CBF4368036821F0F02121F092
:1049F0008211194214BF0120002010BD0060024046
:104A0000006402400F6402400B0611D543694AB1AD
:104A100043F080038029436114D0036801F01E0134
:104A200019430EE023F080038029436104D17047CD
:104A3000802907D0002AF0D1036801F01E0123EA83
:104A4000010101607047114A114B10B5114CA04291
:104A500094BF1C46144621F0F02323F0C3122AB160
:104A6000006800F01E0000EAD12202E0406900F078
:104A7000800289004CBF6068206823F082131840D0
:104A800002D0101C18BF012010BD00BF00640240FE
:104A9000006002400F64024010B5084A084B094C00
:104AA000A04294BF1846104611F0005F21F0F0219B
:104AB00021F0821114BFC160816010BD006402400A
:104AC000006002400F640240FFF7E6BF044B002283
:104AD0001A605A609A60DA60024A5A61704700BFF1
:104AE000003C0140FFFF7F0082790168037970B5C7
:104AF00042B3194A1568CE4335401560546803F136
:104B0000804303F59E33344054601C682143196090
:104B100001689468CD432C409460D3682B40D360E7
:104B20004379102B06D193680B439360D3681943E4
:104B3000D16070BD03F1804303F59E331A681143C1
:104B4000196070BD03F1804303F59E331A6822EAB1
:104B500001021A6070BD00BF003C014000230C221E
:104B600003600371427183717047024A13691843ED
:104B700010617047003C0140034B5B69034214BF66
:104B800001200020704700BF003C0140014B5861EC
:104B9000704700BF003C0140054B1A685B69034049
:104BA00004D0024214BF012000207047184670470D
:104BB000003C0140014B5861704700BF003C014080
:104BC000014BC0B218707047003C0240044B1A6899
:104BD00010B142F4807201E022F480721A607047D2
:104BE000003C0240044B1A6810B142F4007201E02C
:104BF00022F400721A607047003C0240044B1A68AD
:104C000010B142F4806201E022F480621A607047C1
:104C1000003C0240024A136843F40063136070478B
:104C2000003C0240024A136843F48053136070470B
:104C3000003C0240044B1A69002ABFBF034A5A6075
:104C400002F188325A607047003C024023016745F8
:104C5000024A136943F0004313617047003C02406D
:104C6000044B5A69D20741BF034A9A6002F14432A9
:104C70009A607047003C02403B2A1908024A536977
:104C800043F0010353617047003C0240044B1A7823
:104C900002F0F3021A701A7810431870704700BFC0
:104CA000143C0240024B5869C0F34710704700BFE4
:104CB000003C0240014B188880B27047163C02400D
:104CC000014B188880B270471A3C0240024B18789A
:104CD000AA3818BF01207047153C0240024B1878D3
:104CE00000F00C00704700BF143C0240044B1A69EE
:104CF00009B1104301E022EA00001861704700BFCB
:104D0000003C0240034BDB68034214BF012000203B
:104D1000704700BF003C0240014BD860704700BFA5
:104D2000003C02400B4BDA68D1030DD4DA68D2069E
:104D30000CD4DA6812F0EF0F0AD1DB6813F0020F1F
:104D400014BF0720082070470120704705207047D6
:104D500006207047003C024007B508238DF8073055
:104D6000FFF7E0FF8DF807009DF80730012BF7D023
:104D70009DF8070003B05DF804FB70B5064641B12D
:104D8000012908D002290CBF4FF400754FF440757B
:104D900003E00D4601E04FF48075FFF7DDFF0828C2
:104DA0001ED1104C236923F44073236121692943E8
:104DB0002161236923F0F8032361236943F002038F
:104DC0001E432661236943F480332361FFF7C4FF48
:104DD000236923F002032361236923F0F80323618D
:104DE00070BD00BF003C0240FFF7B6BFF8B50546F6
:104DF00016461F46FFF7B0FF082814D10A4C236956
:104E000023F440732361236943F4407323612369CE
:104E100043F001032361C5E90067FFF79DFF2369A4
:104E200023F001032361F8BD003C024070B5054644
:104E30000E46FFF791FF082813D10A4C236923F48B
:104E400040732361236943F400732361236943F0B2
:104E5000010323612E60FFF77FFF236923F0010325
:104E6000236170BD003C024070B505460E46FFF759
:104E700073FF082813D10A4C236923F4407323617C
:104E8000236943F480732361236943F001032361A1
:104E90002E80FFF761FF236923F00103236170BDBA
:104EA000003C024070B505460E46FFF755FF082846
:104EB00011D1094C236923F44073236123692361D1
:104EC000236943F0010323612E70FFF745FF236937
:104ED00023F00103236170BD003C024038B5044655
:104EE0000D46FFF739FF082809D1054B18881DB179
:104EF00080B220EA040001E0204380B2188038BD6F
:104F0000163C024038B504460D46FFF725FF082839
:104F100009D1054B18881DB180B220EA040001E0D8
:104F2000204380B2188038BD1A3C024010B50446B8
:104F3000FFF712FF082804BF014B1C7010BD00BF13
:104F4000153C024070B506460C461546FFF704FFB7
:104F5000082809D1054B187800F00F00304345EAC6
:104F6000000244EA0201197070BD00BF143C024007
:104F7000034A137843F002031370FFF7EDBE00BF3E
:104F8000143C02404FF0204318B943F2DB021A6090
:104F900003E043F2D20243F82020800000F12040D9
:104FA0006FF070434360C0F8043170478168436814
:104FB00041EA0302C3681A4303691A4343691A4367
:104FC00083691A43C3691A43036A1A43436A1A433B
:104FD000836A30B5C46A1343026B234313430268E8
:104FE000920002F120420829136008BF1368416B48
:104FF00008BF43F040030D6808BF13608B692B4363
:105000004D6843EA05138D6843EA0523CD6843EAFA
:1050100005430D69496943EA055343EA0163B4F561
:10502000804F536010D1816B08688B6903434868D7
:1050300043EA0013886843EA00230869496943EAA0
:10504000005343EA016301E06FF07043C2F804319A
:1050500030BD022210B542604FF480524262416B73
:105060004FF40052826200230F22FF24036083600A
:10507000C360036143618361C3610362C36203630D
:105080000A604A608C60CA600A614A618B61816B08
:105090000A604A608C60CA600A614A618B6110BD17
:1050A000800000F1204019B1036843F0010302E0E1
:1050B0000268024B13400360704700BFFEFF0F0001
:1050C00010280CBF054B064B4022182119605A606E
:1050D0004FF0FC329A60DA60704700BF600000A0B9
:1050E000800000A0426883681343C26843F008034D
:1050F0001A4303691343426930B543EA4223C46942
:1051000082696168056A006843EA4233A268120452
:1051100042EA012221680A43E168AC6842EA01617F
:105120006A68240444EA02242A68102842EA040235
:10513000EC680CBF0348044842EA046203608160E3
:10514000C26030BD600000A0800000A0102303609A
:10515000C269002343608360C3600361436183616C
:10516000FC23136053609360D360026A1360536042
:105170009360D360704739B110280CBF074A084AC2
:10518000136843F0040306E010280CBF034A044AE6
:10519000044B11680B401360704700BF600000A013
:1051A000800000A0FBFF0F0039B110280CBF074A98
:1051B000074A136843F0400306E010280CBF034A77
:1051C000034A044B11680B4013607047600000A055
:1051D000800000A0BFFF0F0010280CBF014B024B46
:1051E00058697047600000A0800000A0054B18229D
:1051F0001A6000225A604FF0FC329A60DA601A613D
:10520000704700BFA00000A003684268174943F040
:10521000100343EA4223826810B543EA4233C4686C
:105220000B60A2686368120442EA032223681343F6
:10523000E2680469406943EA02638B60A2686368BC
:10524000120442EA032223681343E26843EA02633A
:10525000CB6082684368120442EA03220368134366
:10526000C26843EA02630B6110BD00BFA00000A04A
:10527000C2680023036043608360FC2313605360B3
:105280009360D3600269136053609360D360426996
:10529000136053609360D3607047054B18B11A6870
:1052A00042F0040202E01968024A0A401A6070479C
:1052B000A00000A0FBFF0F007AB1102801D10E4A18
:1052C00008E0B0F5807F04D10C4B5A681143596057
:1052D00070470B4A536819430CE010286FEA01012C
:1052E00001D1054A04E0B0F5807F0CBF034A044AAF
:1052F0005368194051607047600000A0800000A012
:10530000A00000A0102801D1064B04E0B0F5807F7A
:105310000CBF054B054B5B680B4214BF01200020FE
:10532000704700BF600000A0800000A0A00000A0A7
:1053300010286FEA010101D1054A04E0B0F5807F31
:105340000CBF044A044A536819405160704700BFBB
:10535000600000A0800000A0A00000A0102801D1E3
:10536000084B04E0B0F5807F0CBF074B074B5B6830
:1053700013EA010004D013EAD10314BF0120002076
:10538000704700BF600000A0800000A0A00000A047
:1053900010284FEAD10101D1054A04E0B0F5807F21
:1053A0000CBF044A044A536823EA01015160704764
:1053B000600000A0800000A0A00000A008B5304B55
:1053C000984206D10121084600F0D4FF00210120B7
:1053D00050E02C4B984206D10121022000F0CAFF78
:1053E0000021022046E0284B984206D101210420EA
:1053F00000F0C0FF002104203CE0244B984206D17D
:105400000121082000F0B6FF0021082032E0204BE7
:10541000984206D10121102000F0ACFF002110209D
:1054200028E01C4B984206D10121202000F0A2FF69
:10543000002120201EE0184B984206D10121402077
:1054400000F098FF0021402014E0144B984206D150
:105450000121802000F08EFF002180200AE0104B07
:1054600098420BD101214FF4807000F083FF00219E
:105470004FF48070BDE8084000F07CBF08BD00BF5D
:10548000000002400004024000080240000C0240FC
:10549000001002400014024000180240001C0240AC
:1054A000002002402DE9F0430F6800234FF0010E69
:1054B00003260EFA03FC3CEA070230D15A000568C5
:1054C00006FA02F4E443254005600D79D0F8008027
:1054D00005FA02F9013D49EA0808012DC0F80080EB
:1054E00011D885682C4084604C79856894402543A8
:1054F0008560446824EA0C0444608C7945689C40CB
:10550000A4B22C434460C46806FA02F524EA0504F8
:10551000C460CD79C46805FA02F22243C260013347
:10552000102BC6D1BDE8F0834FF6FF730360002354
:10553000037143718371C371704782B04FF480333C
:105540000193019B0B430193019BC361C161019BCB
:10555000C361C3690193C369019302B070470369D2
:10556000194214BF012000207047006980B27047C3
:105570004369194214BF012000207047406980B27E
:10558000704701837047418370470AB101837047B8
:105590004183704741617047436959404161704799
:1055A00001F00703C90800EB810010B59B00046AF5
:1055B0000F21994024EA01010162016A9A400A43DD
:1055C000026210BD08B50121202000F0DFFE00219D
:1055D0002020BDE8084000F0D9BE0F4B1A6822F425
:1055E000802222F0F00210B51A6090E814001968C9
:1055F000114382680A432243402C1A6007D11A687B
:1056000022F480321A601968C2680A431A601A6864
:1056100042F004021A6010BD00040650002303602B
:1056200043608360C3607047024A136843F0040319
:105630001360704700040650044B9A6822F01F0262
:105640009A609A6810439860704700BF0004065043
:10565000014B5860704700BF00040650024B1868A9
:10566000C0F30320704700BF00040650094BDA68FE
:1056700002601A6942605A6982609A69C260DB6995
:105680000361054B5A6942619A698261DB69C361B2
:10569000704700BF0004065010070650024A936886
:1056A00043F480739360704700040650094B1A6AF4
:1056B00002609A6842601A6840F8082F002202F1DE
:1056C0003E01013253F8211040F8041F362AF6D16A
:1056D000704700BF000406500B4B026810B51A62F9
:1056E00042689A6050F8082F1A601A6842F0040263
:1056F0001A60002202F13E01013250F8044F43F8D3
:105700002140362AF6D110BD00040650044B1A6819
:1057100010B122F4005201E042F400521A607047C6
:1057200000040650044B1A6810B142F0080201E070
:1057300022F008021A60704700040650044B1A6AEF
:1057400009B1104301E022EA00001862704700BF6F
:1057500000040650054B10F4805F14BF1B685B6AA1
:10576000034214BF01200020704700BF0004065010
:10577000014BC0435862704700040650044A516A06
:10578000136A0B40034214BF01200020704700BF82
:1057900000040650014BC043586270470004065095
:1057A000F0B501F003038FB00025DB00ADF8025027
:1057B00007460E4614460195ADF80230FFF702FF8A
:1057C0008023029302A8202303950493FFF705FF8B
:1057D000BDF8020080B2FFF72FFF3D46EB1B9E4253
:1057E00004D955F8040BFFF733FFF7E7FFF756FF2F
:1057F0000820FFF7AFFF019B01330193019BB3F535
:10580000803F02D00028F3D100E080B906A8FFF75E
:105810002DFF069B1BBA2360079B1BBA6360089B86
:105820001BBAA360099B1BBA0120E36000E00020C3
:105830000FB0F0BD2DE9F04398468FB003F003039D
:105840000027DB00ADF80070ADF802700197ADF8ED
:10585000003001F00303DB000D4606469146ADF82B
:105860000230169CFFF7AEFE802302934023402DAA
:1058700003934FF02003049302A88ABF4FF48033B0
:1058800005970593FFF7A9FEBDF8020080B2FFF768
:10589000D3FE3746BB1BAB4204D257F8040BFFF7CD
:1058A000D7FEF7E7FFF7FAFE0820FFF753FF019B4B
:1058B00001330193019BB3F5803F02D00028F3D15F
:1058C00002E008B1002052E0BDF8000080B2FFF70E
:1058D000B3FE4F46C9EB0703434504D257F8040B08
:1058E000FFF7B6FEF6E7FFF7D9FE00230193082085
:1058F000FFF730FF019B01330193019BB3F5803F1C
:1059000002D00028F3D101E00028DBD1BDF802006D
:1059100080B2FFF791FE3746BB1B9D4204D957F872
:10592000040BFFF795FEF7E7FFF7B8FE002301939E
:105930000820FFF70FFF019B01330193019BB3F593
:10594000803F02D00028F3D101E00028BAD106A898
:10595000FFF78CFE069B1BBA2360079B1BBA636094
:10596000089B1BBAA360099B1BBA0120E3600FB020
:10597000BDE8F083F0B501F003038FB00025DB0034
:10598000ADF8025007460E4614460195ADF80230B8
:10599000FFF718FE202302A8029503950493FFF752
:1059A0001CFEBDF8020080B2FFF746FE3D46EB1B31
:1059B0009E4204D955F8040BFFF74AFEF7E7FFF7BC
:1059C0006DFE0820FFF7C6FE019B01330193019B8A
:1059D000B3F5803F02D00028F3D100E098B906A8C3
:1059E000FFF744FE069B1BBA2360079B1BBA63604C
:1059F000089B1BBAA360099B1BBAE3600A9B1BBAF6
:105A00000120236100E000200FB0F0BD2DE9F0433C
:105A100098468FB003F003030025DB00ADF800507B
:105A2000ADF802500195ADF8003001F00303DB0042
:105A30000E4607469146ADF80230169CFFF7C2FDB0
:105A40004023402E03934FF02003049302A88CBF01
:105A50004FF480330595029588BF0593FFF7BDFD90
:105A6000BDF8020080B2FFF7E7FD3D46EB1BB342F5
:105A700004D255F8040BFFF7EBFDF7E7FFF70EFE36
:105A80000820FFF767FE019B01330193019BB3F5EB
:105A9000803F02D00028F3D102E008B1002055E099
:105AA000BDF8000080B2FFF7C7FD4D46C9EB050306
:105AB000434504D255F8040BFFF7CAFDF6E7FFF79C
:105AC000EDFD002301930820FFF744FE019B013305
:105AD0000193019BB3F5803F02D00028F3D101E090
:105AE0000028DBD1BDF8020080B2FFF7A5FD3D46DE
